{
  "_format": "hh-sol-artifact-1",
  "contractName": "WhiskeyNFT",
  "sourceName": "contracts/WhiskeyNFT.sol",
  "abi": [
    {
      "inputs": [],
      "stateMutability": "nonpayable",
      "type": "constructor"
    },
    {
      "anonymous": false,
      "inputs": [
        {
          "indexed": true,
          "internalType": "address",
          "name": "owner",
          "type": "address"
        },
        {
          "indexed": true,
          "internalType": "address",
          "name": "approved",
          "type": "address"
        },
        {
          "indexed": true,
          "internalType": "uint256",
          "name": "tokenId",
          "type": "uint256"
        }
      ],
      "name": "Approval",
      "type": "event"
    },
    {
      "anonymous": false,
      "inputs": [
        {
          "indexed": true,
          "internalType": "address",
          "name": "owner",
          "type": "address"
        },
        {
          "indexed": true,
          "internalType": "address",
          "name": "operator",
          "type": "address"
        },
        {
          "indexed": false,
          "internalType": "bool",
          "name": "approved",
          "type": "bool"
        }
      ],
      "name": "ApprovalForAll",
      "type": "event"
    },
    {
      "anonymous": false,
      "inputs": [
        {
          "indexed": false,
          "internalType": "address",
          "name": "sender",
          "type": "address"
        },
        {
          "indexed": false,
          "internalType": "uint256",
          "name": "tokenId",
          "type": "uint256"
        }
      ],
      "name": "NewWhiskeyNFTMinted",
      "type": "event"
    },
    {
      "anonymous": false,
      "inputs": [
        {
          "indexed": true,
          "internalType": "address",
          "name": "from",
          "type": "address"
        },
        {
          "indexed": true,
          "internalType": "address",
          "name": "to",
          "type": "address"
        },
        {
          "indexed": true,
          "internalType": "uint256",
          "name": "tokenId",
          "type": "uint256"
        }
      ],
      "name": "Transfer",
      "type": "event"
    },
    {
      "inputs": [
        {
          "internalType": "address",
          "name": "to",
          "type": "address"
        },
        {
          "internalType": "uint256",
          "name": "tokenId",
          "type": "uint256"
        }
      ],
      "name": "approve",
      "outputs": [],
      "stateMutability": "nonpayable",
      "type": "function"
    },
    {
      "inputs": [
        {
          "internalType": "address",
          "name": "owner",
          "type": "address"
        }
      ],
      "name": "balanceOf",
      "outputs": [
        {
          "internalType": "uint256",
          "name": "",
          "type": "uint256"
        }
      ],
      "stateMutability": "view",
      "type": "function"
    },
    {
      "inputs": [
        {
          "internalType": "uint256",
          "name": "tokenId",
          "type": "uint256"
        }
      ],
      "name": "getApproved",
      "outputs": [
        {
          "internalType": "address",
          "name": "",
          "type": "address"
        }
      ],
      "stateMutability": "view",
      "type": "function"
    },
    {
      "inputs": [
        {
          "internalType": "address",
          "name": "owner",
          "type": "address"
        },
        {
          "internalType": "address",
          "name": "operator",
          "type": "address"
        }
      ],
      "name": "isApprovedForAll",
      "outputs": [
        {
          "internalType": "bool",
          "name": "",
          "type": "bool"
        }
      ],
      "stateMutability": "view",
      "type": "function"
    },
    {
      "inputs": [],
      "name": "makeWhiskeyNFT",
      "outputs": [],
      "stateMutability": "nonpayable",
      "type": "function"
    },
    {
      "inputs": [],
      "name": "name",
      "outputs": [
        {
          "internalType": "string",
          "name": "",
          "type": "string"
        }
      ],
      "stateMutability": "view",
      "type": "function"
    },
    {
      "inputs": [
        {
          "internalType": "uint256",
          "name": "tokenId",
          "type": "uint256"
        }
      ],
      "name": "ownerOf",
      "outputs": [
        {
          "internalType": "address",
          "name": "",
          "type": "address"
        }
      ],
      "stateMutability": "view",
      "type": "function"
    },
    {
      "inputs": [
        {
          "internalType": "uint256",
          "name": "tokenId",
          "type": "uint256"
        }
      ],
      "name": "pickRandomFirstWord",
      "outputs": [
        {
          "internalType": "string",
          "name": "",
          "type": "string"
        }
      ],
      "stateMutability": "view",
      "type": "function"
    },
    {
      "inputs": [
        {
          "internalType": "uint256",
          "name": "tokenId",
          "type": "uint256"
        }
      ],
      "name": "pickRandomSecondWord",
      "outputs": [
        {
          "internalType": "string",
          "name": "",
          "type": "string"
        }
      ],
      "stateMutability": "view",
      "type": "function"
    },
    {
      "inputs": [
        {
          "internalType": "uint256",
          "name": "tokenId",
          "type": "uint256"
        }
      ],
      "name": "pickRandomThirdWord",
      "outputs": [
        {
          "internalType": "string",
          "name": "",
          "type": "string"
        }
      ],
      "stateMutability": "view",
      "type": "function"
    },
    {
      "inputs": [
        {
          "internalType": "address",
          "name": "from",
          "type": "address"
        },
        {
          "internalType": "address",
          "name": "to",
          "type": "address"
        },
        {
          "internalType": "uint256",
          "name": "tokenId",
          "type": "uint256"
        }
      ],
      "name": "safeTransferFrom",
      "outputs": [],
      "stateMutability": "nonpayable",
      "type": "function"
    },
    {
      "inputs": [
        {
          "internalType": "address",
          "name": "from",
          "type": "address"
        },
        {
          "internalType": "address",
          "name": "to",
          "type": "address"
        },
        {
          "internalType": "uint256",
          "name": "tokenId",
          "type": "uint256"
        },
        {
          "internalType": "bytes",
          "name": "_data",
          "type": "bytes"
        }
      ],
      "name": "safeTransferFrom",
      "outputs": [],
      "stateMutability": "nonpayable",
      "type": "function"
    },
    {
      "inputs": [
        {
          "internalType": "address",
          "name": "operator",
          "type": "address"
        },
        {
          "internalType": "bool",
          "name": "approved",
          "type": "bool"
        }
      ],
      "name": "setApprovalForAll",
      "outputs": [],
      "stateMutability": "nonpayable",
      "type": "function"
    },
    {
      "inputs": [
        {
          "internalType": "bytes4",
          "name": "interfaceId",
          "type": "bytes4"
        }
      ],
      "name": "supportsInterface",
      "outputs": [
        {
          "internalType": "bool",
          "name": "",
          "type": "bool"
        }
      ],
      "stateMutability": "view",
      "type": "function"
    },
    {
      "inputs": [],
      "name": "symbol",
      "outputs": [
        {
          "internalType": "string",
          "name": "",
          "type": "string"
        }
      ],
      "stateMutability": "view",
      "type": "function"
    },
    {
      "inputs": [
        {
          "internalType": "uint256",
          "name": "tokenId",
          "type": "uint256"
        }
      ],
      "name": "tokenURI",
      "outputs": [
        {
          "internalType": "string",
          "name": "",
          "type": "string"
        }
      ],
      "stateMutability": "view",
      "type": "function"
    },
    {
      "inputs": [
        {
          "internalType": "address",
          "name": "from",
          "type": "address"
        },
        {
          "internalType": "address",
          "name": "to",
          "type": "address"
        },
        {
          "internalType": "uint256",
          "name": "tokenId",
          "type": "uint256"
        }
      ],
      "name": "transferFrom",
      "outputs": [],
      "stateMutability": "nonpayable",
      "type": "function"
    }
  ],
  "bytecode": "0x608060405260405180610160016040528061012f815260200162004c2461012f9139600890805190602001906200003892919062000d6b565b506040518061020001604052806040518060400160405280600381526020017f444f47000000000000000000000000000000000000000000000000000000000081525081526020016040518060400160405280600481526020017f474f41540000000000000000000000000000000000000000000000000000000081525081526020016040518060400160405280600681526020017f444f4e4b4559000000000000000000000000000000000000000000000000000081525081526020016040518060400160405280600381526020017f434154000000000000000000000000000000000000000000000000000000000081525081526020016040518060400160405280600981526020017f504f52435550494e45000000000000000000000000000000000000000000000081525081526020016040518060400160405280600a81526020017f5248494e4f4345524f530000000000000000000000000000000000000000000081525081526020016040518060400160405280600381526020017f454d55000000000000000000000000000000000000000000000000000000000081525081526020016040518060400160405280600581526020017f50414e444100000000000000000000000000000000000000000000000000000081525081526020016040518060400160405280600581526020017f534845455000000000000000000000000000000000000000000000000000000081525081526020016040518060400160405280600781526020017f474952414646450000000000000000000000000000000000000000000000000081525081526020016040518060400160405280600481526020017f4c494f4e0000000000000000000000000000000000000000000000000000000081525081526020016040518060400160405280600881526020017f4d41524d4f53455400000000000000000000000000000000000000000000000081525081526020016040518060400160405280600781526020017f4d4545524b41540000000000000000000000000000000000000000000000000081525081526020016040518060400160405280600581526020017f4d4143415700000000000000000000000000000000000000000000000000000081525081526020016040518060400160405280600b81526020017f524154544c45534e414b4500000000000000000000000000000000000000000081525081526020016040518060400160405280600981526020017f41524d4144494c4c4f000000000000000000000000000000000000000000000081525081525060099060106200040592919062000dfc565b506040518061020001604052806040518060400160405280600881526020017f464f4f5442414c4c00000000000000000000000000000000000000000000000081525081526020016040518060400160405280600681526020017f534f43434552000000000000000000000000000000000000000000000000000081525081526020016040518060400160405280600681526020017f484f434b4559000000000000000000000000000000000000000000000000000081525081526020016040518060400160405280600881526020017f4c4143524f53534500000000000000000000000000000000000000000000000081525081526020016040518060400160405280600881526020017f4241534542414c4c00000000000000000000000000000000000000000000000081525081526020016040518060400160405280600a81526020017f4241534b455442414c4c0000000000000000000000000000000000000000000081525081526020016040518060400160405280600781526020017f52554e4e494e470000000000000000000000000000000000000000000000000081525081526020016040518060400160405280600781526020017f4359434c494e470000000000000000000000000000000000000000000000000081525081526020016040518060400160405280600681526020017f424f58494e47000000000000000000000000000000000000000000000000000081525081526020016040518060400160405280600581526020017f525547425900000000000000000000000000000000000000000000000000000081525081526020016040518060400160405280600881526020017f534f465442414c4c00000000000000000000000000000000000000000000000081525081526020016040518060400160405280600681526020017f524143494e47000000000000000000000000000000000000000000000000000081525081526020016040518060400160405280600c81526020017f41524d57524553544c494e47000000000000000000000000000000000000000081525081526020016040518060400160405280600681526020017f444953435553000000000000000000000000000000000000000000000000000081525081526020016040518060400160405280600781526020017f465249534245450000000000000000000000000000000000000000000000000081525081526020016040518060400160405280600a81526020017f5049434b4c4542414c4c00000000000000000000000000000000000000000000815250815250600a906010620007d292919062000dfc565b506040518061020001604052806040518060400160405280600581526020017f424c55455300000000000000000000000000000000000000000000000000000081525081526020016040518060400160405280600481526020017f524f434b0000000000000000000000000000000000000000000000000000000081525081526020016040518060400160405280600581526020017f5357494e4700000000000000000000000000000000000000000000000000000081525081526020016040518060400160405280600381526020017f45444d000000000000000000000000000000000000000000000000000000000081525081526020016040518060400160405280600781526020017f434f554e5452590000000000000000000000000000000000000000000000000081525081526020016040518060400160405280600581526020017f4f5045524100000000000000000000000000000000000000000000000000000081525081526020016040518060400160405280600681526020017f484950484f50000000000000000000000000000000000000000000000000000081525081526020016040518060400160405280600581526020017f4d4554414c00000000000000000000000000000000000000000000000000000081525081526020016040518060400160405280600381526020017f524150000000000000000000000000000000000000000000000000000000000081525081526020016040518060400160405280600481526020017f4b504f500000000000000000000000000000000000000000000000000000000081525081526020016040518060400160405280600881526020017f4146524f4245415400000000000000000000000000000000000000000000000081525081526020016040518060400160405280600481526020017f464f4c4b0000000000000000000000000000000000000000000000000000000081525081526020016040518060400160405280600881526020017f464c414d454e434f00000000000000000000000000000000000000000000000081525081526020016040518060400160405280600881526020017f41434150454c4c4100000000000000000000000000000000000000000000000081525081526020016040518060400160405280600981526020017f424c55454752415353000000000000000000000000000000000000000000000081525081526020016040518060400160405280600581526020017f444953434f000000000000000000000000000000000000000000000000000000815250815250600b90601062000b9f92919062000dfc565b5034801562000bad57600080fd5b506040518060400160405280600a81526020017f576869736b65794e4654000000000000000000000000000000000000000000008152506040518060400160405280600581526020017f4452494e4b000000000000000000000000000000000000000000000000000000815250816000908051906020019062000c3292919062000d6b565b50806001908051906020019062000c4b92919062000d6b565b50505062000c996040518060400160405280601c81526020017f4b656570206772696e64696e672e20596f7520676f742074686973210000000081525062000c9f60201b620011981760201c565b6200101d565b62000d3f8160405160240162000cb6919062000f31565b6040516020818303038152906040527f41304fac000000000000000000000000000000000000000000000000000000007bffffffffffffffffffffffffffffffffffffffffffffffffffffffff19166020820180517bffffffffffffffffffffffffffffffffffffffffffffffffffffffff838183161783525050505062000d4260201b60201c565b50565b60008151905060006a636f6e736f6c652e6c6f679050602083016000808483855afa5050505050565b82805462000d799062000fa7565b90600052602060002090601f01602090048101928262000d9d576000855562000de9565b82601f1062000db857805160ff191683800117855562000de9565b8280016001018555821562000de9579182015b8281111562000de857825182559160200191906001019062000dcb565b5b50905062000df8919062000e63565b5090565b82805482825590600052602060002090810192821562000e50579160200282015b8281111562000e4f57825182908051906020019062000e3e92919062000d6b565b509160200191906001019062000e1d565b5b50905062000e5f919062000e82565b5090565b5b8082111562000e7e57600081600090555060010162000e64565b5090565b5b8082111562000ea6576000818162000e9c919062000eaa565b5060010162000e83565b5090565b50805462000eb89062000fa7565b6000825580601f1062000ecc575062000eed565b601f01602090049060005260206000209081019062000eec919062000e63565b5b50565b600062000efd8262000f55565b62000f09818562000f60565b935062000f1b81856020860162000f71565b62000f26816200100c565b840191505092915050565b6000602082019050818103600083015262000f4d818462000ef0565b905092915050565b600081519050919050565b600082825260208201905092915050565b60005b8381101562000f9157808201518184015260208101905062000f74565b8381111562000fa1576000848401525b50505050565b6000600282049050600182168062000fc057607f821691505b6020821081141562000fd75762000fd662000fdd565b5b50919050565b7f4e487b7100000000000000000000000000000000000000000000000000000000600052602260045260246000fd5b6000601f19601f8301169050919050565b613bf7806200102d6000396000f3fe608060405234801561001057600080fd5b506004361061010b5760003560e01c8063707c8424116100a2578063b187301f11610071578063b187301f146102b6578063b88d4fde146102e6578063c575757a14610302578063c87b56dd14610332578063e985e9c5146103625761010b565b8063707c84241461024257806370a082311461024c57806395d89b411461027c578063a22cb4651461029a5761010b565b806323b872dd116100de57806323b872dd146101aa5780632de38d68146101c657806342842e0e146101f65780636352211e146102125761010b565b806301ffc9a71461011057806306fdde0314610140578063081812fc1461015e578063095ea7b31461018e575b600080fd5b61012a60048036038101906101259190612660565b610392565b6040516101379190612daf565b60405180910390f35b610148610474565b6040516101559190612dca565b60405180910390f35b610178600480360381019061017391906126b2565b610506565b6040516101859190612d1f565b60405180910390f35b6101a860048036038101906101a39190612624565b61058b565b005b6101c460048036038101906101bf919061251e565b6106a3565b005b6101e060048036038101906101db91906126b2565b610703565b6040516101ed9190612dca565b60405180910390f35b610210600480360381019061020b919061251e565b610821565b005b61022c600480360381019061022791906126b2565b610841565b6040516102399190612d1f565b60405180910390f35b61024a6108f3565b005b610266600480360381019061026191906124b9565b610bb4565b6040516102739190613061565b60405180910390f35b610284610c6c565b6040516102919190612dca565b60405180910390f35b6102b460048036038101906102af91906125e8565b610cfe565b005b6102d060048036038101906102cb91906126b2565b610d14565b6040516102dd9190612dca565b60405180910390f35b61030060048036038101906102fb919061256d565b610e32565b005b61031c600480360381019061031791906126b2565b610e94565b6040516103299190612dca565b60405180910390f35b61034c600480360381019061034791906126b2565b610fb2565b6040516103599190612dca565b60405180910390f35b61037c600480360381019061037791906124e2565b611104565b6040516103899190612daf565b60405180910390f35b60007f80ac58cd000000000000000000000000000000000000000000000000000000007bffffffffffffffffffffffffffffffffffffffffffffffffffffffff1916827bffffffffffffffffffffffffffffffffffffffffffffffffffffffff1916148061045d57507f5b5e139f000000000000000000000000000000000000000000000000000000007bffffffffffffffffffffffffffffffffffffffffffffffffffffffff1916827bffffffffffffffffffffffffffffffffffffffffffffffffffffffff1916145b8061046d575061046c82611231565b5b9050919050565b606060008054610483906132f5565b80601f01602080910402602001604051908101604052809291908181526020018280546104af906132f5565b80156104fc5780601f106104d1576101008083540402835291602001916104fc565b820191906000526020600020905b8154815290600101906020018083116104df57829003601f168201915b5050505050905090565b60006105118261129b565b610550576040517f08c379a000000000000000000000000000000000000000000000000000000000815260040161054790612fe1565b60405180910390fd5b6004600083815260200190815260200160002060009054906101000a900473ffffffffffffffffffffffffffffffffffffffff169050919050565b600061059682610841565b90508073ffffffffffffffffffffffffffffffffffffffff168373ffffffffffffffffffffffffffffffffffffffff161415610607576040517f08c379a00000000000000000000000000000000000000000000000000000000081526004016105fe90613021565b60405180910390fd5b8073ffffffffffffffffffffffffffffffffffffffff16610626611307565b73ffffffffffffffffffffffffffffffffffffffff16148061065557506106548161064f611307565b611104565b5b610694576040517f08c379a000000000000000000000000000000000000000000000000000000000815260040161068b90612f21565b60405180910390fd5b61069e838361130f565b505050565b6106b46106ae611307565b826113c8565b6106f3576040517f08c379a00000000000000000000000000000000000000000000000000000000081526004016106ea90613041565b60405180910390fd5b6106fe8383836114a6565b505050565b606060006107376107138461170d565b6040516020016107239190612cdb565b6040516020818303038152906040526118ba565b90506009805490508161074a91906133a1565b905060098181548110610786577f4e487b7100000000000000000000000000000000000000000000000000000000600052603260045260246000fd5b90600052602060002001805461079b906132f5565b80601f01602080910402602001604051908101604052809291908181526020018280546107c7906132f5565b80156108145780601f106107e957610100808354040283529160200191610814565b820191906000526020600020905b8154815290600101906020018083116107f757829003601f168201915b5050505050915050919050565b61083c83838360405180602001604052806000815250610e32565b505050565b6000806002600084815260200190815260200160002060009054906101000a900473ffffffffffffffffffffffffffffffffffffffff169050600073ffffffffffffffffffffffffffffffffffffffff168173ffffffffffffffffffffffffffffffffffffffff1614156108ea576040517f08c379a00000000000000000000000000000000000000000000000000000000081526004016108e190612f61565b60405180910390fd5b80915050919050565b60006108ff60076118ed565b9050600061090c82610703565b9050600061091983610d14565b9050600061092684610e94565b9050600083838360405160200161093f93929190612bd0565b60405160208183030381529060405290506000600882604051602001610966929190612c01565b604051602081830303815290604052905060006109ab83610986846118fb565b604051602001610997929190612c96565b6040516020818303038152906040526118fb565b90506000816040516020016109c09190612cfd565b6040516020818303038152906040529050610a0f6040518060400160405280601281526020017f0a2d2d2d2d2d2d2d2d2d2d2d2d2d2d2d2d2d0000000000000000000000000000815250611198565b610a4e6040518060400160405280601281526020017f726177206461746120746f6b656e5552493a000000000000000000000000000081525082611ab9565b610a8c6040518060400160405280600181526020017f2000000000000000000000000000000000000000000000000000000000000000815250611198565b610aca6040518060400160405280600c81526020017f4e465420507265766965773a0000000000000000000000000000000000000000815250611198565b610af281604051602001610ade9190612c30565b604051602081830303815290604052611198565b610b306040518060400160405280601281526020017f2d2d2d2d2d2d2d2d2d2d2d2d2d2d2d2d2d0a0000000000000000000000000000815250611198565b610b3a3389611b55565b610b448882611b73565b610b4e6007611be7565b610b71604051806060016040528060258152602001613b5d602591398933611bfd565b7f77ae72bf252038f48055589caa6dc2d2609f0a1e34003ff8818fafce76210c903389604051610ba2929190612d86565b60405180910390a15050505050505050565b60008073ffffffffffffffffffffffffffffffffffffffff168273ffffffffffffffffffffffffffffffffffffffff161415610c25576040517f08c379a0000000000000000000000000000000000000000000000000000000008152600401610c1c90612f41565b60405180910390fd5b600360008373ffffffffffffffffffffffffffffffffffffffff1673ffffffffffffffffffffffffffffffffffffffff168152602001908152602001600020549050919050565b606060018054610c7b906132f5565b80601f0160208091040260200160405190810160405280929190818152602001828054610ca7906132f5565b8015610cf45780601f10610cc957610100808354040283529160200191610cf4565b820191906000526020600020905b815481529060010190602001808311610cd757829003601f168201915b5050505050905090565b610d10610d09611307565b8383611c9c565b5050565b60606000610d48610d248461170d565b604051602001610d349190612c74565b6040516020818303038152906040526118ba565b9050600a8054905081610d5b91906133a1565b9050600a8181548110610d97577f4e487b7100000000000000000000000000000000000000000000000000000000600052603260045260246000fd5b906000526020600020018054610dac906132f5565b80601f0160208091040260200160405190810160405280929190818152602001828054610dd8906132f5565b8015610e255780601f10610dfa57610100808354040283529160200191610e25565b820191906000526020600020905b815481529060010190602001808311610e0857829003601f168201915b5050505050915050919050565b610e43610e3d611307565b836113c8565b610e82576040517f08c379a0000000000000000000000000000000000000000000000000000000008152600401610e7990613041565b60405180910390fd5b610e8e84848484611e09565b50505050565b60606000610ec8610ea48461170d565b604051602001610eb49190612c52565b6040516020818303038152906040526118ba565b9050600b8054905081610edb91906133a1565b9050600b8181548110610f17577f4e487b7100000000000000000000000000000000000000000000000000000000600052603260045260246000fd5b906000526020600020018054610f2c906132f5565b80601f0160208091040260200160405190810160405280929190818152602001828054610f58906132f5565b8015610fa55780601f10610f7a57610100808354040283529160200191610fa5565b820191906000526020600020905b815481529060010190602001808311610f8857829003601f168201915b5050505050915050919050565b6060610fbd8261129b565b610ffc576040517f08c379a0000000000000000000000000000000000000000000000000000000008152600401610ff390612fc1565b60405180910390fd5b600060066000848152602001908152602001600020805461101c906132f5565b80601f0160208091040260200160405190810160405280929190818152602001828054611048906132f5565b80156110955780601f1061106a57610100808354040283529160200191611095565b820191906000526020600020905b81548152906001019060200180831161107857829003601f168201915b5050505050905060006110a6611e65565b90506000815114156110bc5781925050506110ff565b6000825111156110f15780826040516020016110d9929190612bac565b604051602081830303815290604052925050506110ff565b6110fa84611e7c565b925050505b919050565b6000600560008473ffffffffffffffffffffffffffffffffffffffff1673ffffffffffffffffffffffffffffffffffffffff16815260200190815260200160002060008373ffffffffffffffffffffffffffffffffffffffff1673ffffffffffffffffffffffffffffffffffffffff16815260200190815260200160002060009054906101000a900460ff16905092915050565b61122e816040516024016111ac9190612dca565b6040516020818303038152906040527f41304fac000000000000000000000000000000000000000000000000000000007bffffffffffffffffffffffffffffffffffffffffffffffffffffffff19166020820180517bffffffffffffffffffffffffffffffffffffffffffffffffffffffff8381831617835250505050611f23565b50565b60007f01ffc9a7000000000000000000000000000000000000000000000000000000007bffffffffffffffffffffffffffffffffffffffffffffffffffffffff1916827bffffffffffffffffffffffffffffffffffffffffffffffffffffffff1916149050919050565b60008073ffffffffffffffffffffffffffffffffffffffff166002600084815260200190815260200160002060009054906101000a900473ffffffffffffffffffffffffffffffffffffffff1673ffffffffffffffffffffffffffffffffffffffff1614159050919050565b600033905090565b816004600083815260200190815260200160002060006101000a81548173ffffffffffffffffffffffffffffffffffffffff021916908373ffffffffffffffffffffffffffffffffffffffff160217905550808273ffffffffffffffffffffffffffffffffffffffff1661138283610841565b73ffffffffffffffffffffffffffffffffffffffff167f8c5be1e5ebec7d5bd14f71427d1e84f3dd0314c0f7b2291e5b200ac8c7c3b92560405160405180910390a45050565b60006113d38261129b565b611412576040517f08c379a000000000000000000000000000000000000000000000000000000000815260040161140990612f01565b60405180910390fd5b600061141d83610841565b90508073ffffffffffffffffffffffffffffffffffffffff168473ffffffffffffffffffffffffffffffffffffffff16148061145f575061145e8185611104565b5b8061149d57508373ffffffffffffffffffffffffffffffffffffffff1661148584610506565b73ffffffffffffffffffffffffffffffffffffffff16145b91505092915050565b8273ffffffffffffffffffffffffffffffffffffffff166114c682610841565b73ffffffffffffffffffffffffffffffffffffffff161461151c576040517f08c379a000000000000000000000000000000000000000000000000000000000815260040161151390612e81565b60405180910390fd5b600073ffffffffffffffffffffffffffffffffffffffff168273ffffffffffffffffffffffffffffffffffffffff16141561158c576040517f08c379a000000000000000000000000000000000000000000000000000000000815260040161158390612ec1565b60405180910390fd5b611597838383611f4c565b6115a260008261130f565b6001600360008573ffffffffffffffffffffffffffffffffffffffff1673ffffffffffffffffffffffffffffffffffffffff16815260200190815260200160002060008282546115f2919061320b565b925050819055506001600360008473ffffffffffffffffffffffffffffffffffffffff1673ffffffffffffffffffffffffffffffffffffffff1681526020019081526020016000206000828254611649919061312a565b92505081905550816002600083815260200190815260200160002060006101000a81548173ffffffffffffffffffffffffffffffffffffffff021916908373ffffffffffffffffffffffffffffffffffffffff160217905550808273ffffffffffffffffffffffffffffffffffffffff168473ffffffffffffffffffffffffffffffffffffffff167fddf252ad1be2c89b69c2b068fc378daa952ba7f163c4a11628f55a4df523b3ef60405160405180910390a4611708838383611f51565b505050565b60606000821415611755576040518060400160405280600181526020017f300000000000000000000000000000000000000000000000000000000000000081525090506118b5565b600082905060005b6000821461178757808061177090613358565b915050600a826117809190613180565b915061175d565b60008167ffffffffffffffff8111156117c9577f4e487b7100000000000000000000000000000000000000000000000000000000600052604160045260246000fd5b6040519080825280601f01601f1916602001820160405280156117fb5781602001600182028036833780820191505090505b5090505b600085146118ae57600182611814919061320b565b9150600a8561182391906133a1565b603061182f919061312a565b60f81b81838151811061186b577f4e487b7100000000000000000000000000000000000000000000000000000000600052603260045260246000fd5b60200101907effffffffffffffffffffffffffffffffffffffffffffffffffffffffffffff1916908160001a905350600a856118a79190613180565b94506117ff565b8093505050505b919050565b6000816040516020016118cd9190612b95565b6040516020818303038152906040528051906020012060001c9050919050565b600081600001549050919050565b606060008251905060008114156119245760405180602001604052806000815250915050611ab4565b60006003600283611935919061312a565b61193f9190613180565b600461194b91906131b1565b9050600060208261195c919061312a565b67ffffffffffffffff81111561199b577f4e487b7100000000000000000000000000000000000000000000000000000000600052604160045260246000fd5b6040519080825280601f01601f1916602001820160405280156119cd5781602001600182028036833780820191505090505b5090506000604051806060016040528060408152602001613b82604091399050600181016020830160005b86811015611a715760038101905062ffffff818a015116603f8160121c168401518060081b905060ff603f83600c1c1686015116810190508060081b905060ff603f8360061c1686015116810190508060081b905060ff603f831686015116810190508060e01b905080845260048401935050506119f8565b506003860660018114611a8b5760028114611a9b57611aa6565b613d3d60f01b6002830352611aa6565b603d60f81b60018303525b508484525050819450505050505b919050565b611b518282604051602401611acf929190612dec565b6040516020818303038152906040527f4b5c4277000000000000000000000000000000000000000000000000000000007bffffffffffffffffffffffffffffffffffffffffffffffffffffffff19166020820180517bffffffffffffffffffffffffffffffffffffffffffffffffffffffff8381831617835250505050611f23565b5050565b611b6f828260405180602001604052806000815250611f56565b5050565b611b7c8261129b565b611bbb576040517f08c379a0000000000000000000000000000000000000000000000000000000008152600401611bb290612f81565b60405180910390fd5b80600660008481526020019081526020016000209080519060200190611be2929190612345565b505050565b6001816000016000828254019250508190555050565b611c97838383604051602401611c1593929190612e23565b6040516020818303038152906040527fe3849f79000000000000000000000000000000000000000000000000000000007bffffffffffffffffffffffffffffffffffffffffffffffffffffffff19166020820180517bffffffffffffffffffffffffffffffffffffffffffffffffffffffff8381831617835250505050611f23565b505050565b8173ffffffffffffffffffffffffffffffffffffffff168373ffffffffffffffffffffffffffffffffffffffff161415611d0b576040517f08c379a0000000000000000000000000000000000000000000000000000000008152600401611d0290612ee1565b60405180910390fd5b80600560008573ffffffffffffffffffffffffffffffffffffffff1673ffffffffffffffffffffffffffffffffffffffff16815260200190815260200160002060008473ffffffffffffffffffffffffffffffffffffffff1673ffffffffffffffffffffffffffffffffffffffff16815260200190815260200160002060006101000a81548160ff0219169083151502179055508173ffffffffffffffffffffffffffffffffffffffff168373ffffffffffffffffffffffffffffffffffffffff167f17307eab39ab6107e8899845ad3d59bd9653f200f220920489ca2b5937696c3183604051611dfc9190612daf565b60405180910390a3505050565b611e148484846114a6565b611e2084848484611fb1565b611e5f576040517f08c379a0000000000000000000000000000000000000000000000000000000008152600401611e5690612e61565b60405180910390fd5b50505050565b606060405180602001604052806000815250905090565b6060611e878261129b565b611ec6576040517f08c379a0000000000000000000000000000000000000000000000000000000008152600401611ebd90613001565b60405180910390fd5b6000611ed0611e65565b90506000815111611ef05760405180602001604052806000815250611f1b565b80611efa8461170d565b604051602001611f0b929190612bac565b6040516020818303038152906040525b915050919050565b60008151905060006a636f6e736f6c652e6c6f679050602083016000808483855afa5050505050565b505050565b505050565b611f608383612148565b611f6d6000848484611fb1565b611fac576040517f08c379a0000000000000000000000000000000000000000000000000000000008152600401611fa390612e61565b60405180910390fd5b505050565b6000611fd28473ffffffffffffffffffffffffffffffffffffffff16612322565b1561213b578373ffffffffffffffffffffffffffffffffffffffff1663150b7a02611ffb611307565b8786866040518563ffffffff1660e01b815260040161201d9493929190612d3a565b602060405180830381600087803b15801561203757600080fd5b505af192505050801561206857506040513d601f19601f820116820180604052508101906120659190612689565b60015b6120eb573d8060008114612098576040519150601f19603f3d011682016040523d82523d6000602084013e61209d565b606091505b506000815114156120e3576040517f08c379a00000000000000000000000000000000000000000000000000000000081526004016120da90612e61565b60405180910390fd5b805181602001fd5b63150b7a0260e01b7bffffffffffffffffffffffffffffffffffffffffffffffffffffffff1916817bffffffffffffffffffffffffffffffffffffffffffffffffffffffff191614915050612140565b600190505b949350505050565b600073ffffffffffffffffffffffffffffffffffffffff168273ffffffffffffffffffffffffffffffffffffffff1614156121b8576040517f08c379a00000000000000000000000000000000000000000000000000000000081526004016121af90612fa1565b60405180910390fd5b6121c18161129b565b15612201576040517f08c379a00000000000000000000000000000000000000000000000000000000081526004016121f890612ea1565b60405180910390fd5b61220d60008383611f4c565b6001600360008473ffffffffffffffffffffffffffffffffffffffff1673ffffffffffffffffffffffffffffffffffffffff168152602001908152602001600020600082825461225d919061312a565b92505081905550816002600083815260200190815260200160002060006101000a81548173ffffffffffffffffffffffffffffffffffffffff021916908373ffffffffffffffffffffffffffffffffffffffff160217905550808273ffffffffffffffffffffffffffffffffffffffff16600073ffffffffffffffffffffffffffffffffffffffff167fddf252ad1be2c89b69c2b068fc378daa952ba7f163c4a11628f55a4df523b3ef60405160405180910390a461231e60008383611f51565b5050565b6000808273ffffffffffffffffffffffffffffffffffffffff163b119050919050565b828054612351906132f5565b90600052602060002090601f01602090048101928261237357600085556123ba565b82601f1061238c57805160ff19168380011785556123ba565b828001600101855582156123ba579182015b828111156123b957825182559160200191906001019061239e565b5b5090506123c791906123cb565b5090565b5b808211156123e45760008160009055506001016123cc565b5090565b60006123fb6123f6846130a1565b61307c565b90508281526020810184848401111561241357600080fd5b61241e8482856132b3565b509392505050565b60008135905061243581613b00565b92915050565b60008135905061244a81613b17565b92915050565b60008135905061245f81613b2e565b92915050565b60008151905061247481613b2e565b92915050565b600082601f83011261248b57600080fd5b813561249b8482602086016123e8565b91505092915050565b6000813590506124b381613b45565b92915050565b6000602082840312156124cb57600080fd5b60006124d984828501612426565b91505092915050565b600080604083850312156124f557600080fd5b600061250385828601612426565b925050602061251485828601612426565b9150509250929050565b60008060006060848603121561253357600080fd5b600061254186828701612426565b935050602061255286828701612426565b9250506040612563868287016124a4565b9150509250925092565b6000806000806080858703121561258357600080fd5b600061259187828801612426565b94505060206125a287828801612426565b93505060406125b3878288016124a4565b925050606085013567ffffffffffffffff8111156125d057600080fd5b6125dc8782880161247a565b91505092959194509250565b600080604083850312156125fb57600080fd5b600061260985828601612426565b925050602061261a8582860161243b565b9150509250929050565b6000806040838503121561263757600080fd5b600061264585828601612426565b9250506020612656858286016124a4565b9150509250929050565b60006020828403121561267257600080fd5b600061268084828501612450565b91505092915050565b60006020828403121561269b57600080fd5b60006126a984828501612465565b91505092915050565b6000602082840312156126c457600080fd5b60006126d2848285016124a4565b91505092915050565b6126e48161323f565b82525050565b6126f381613251565b82525050565b6000612704826130e7565b61270e81856130fd565b935061271e8185602086016132c2565b6127278161348e565b840191505092915050565b600061273d826130f2565b612747818561310e565b93506127578185602086016132c2565b6127608161348e565b840191505092915050565b6000612776826130f2565b612780818561311f565b93506127908185602086016132c2565b80840191505092915050565b600081546127a9816132f5565b6127b3818661311f565b945060018216600081146127ce57600181146127df57612812565b60ff19831686528186019350612812565b6127e8856130d2565b60005b8381101561280a578154818901526001820191506020810190506127eb565b838801955050505b50505092915050565b600061282860258361311f565b91506128338261349f565b602582019050919050565b600061284b60328361310e565b9150612856826134ee565b604082019050919050565b600061286e60258361310e565b91506128798261353d565b604082019050919050565b6000612891601c8361310e565b915061289c8261358c565b602082019050919050565b60006128b4600a8361311f565b91506128bf826135b5565b600a82019050919050565b60006128d760248361310e565b91506128e2826135de565b604082019050919050565b60006128fa60198361310e565b91506129058261362d565b602082019050919050565b600061291d600b8361311f565b915061292882613656565b600b82019050919050565b6000612940602c8361310e565b915061294b8261367f565b604082019050919050565b6000612963600d8361311f565b915061296e826136ce565b600d82019050919050565b600061298660388361310e565b9150612991826136f7565b604082019050919050565b60006129a9602a8361310e565b91506129b482613746565b604082019050919050565b60006129cc60298361310e565b91506129d782613795565b604082019050919050565b60006129ef602e8361310e565b91506129fa826137e4565b604082019050919050565b6000612a1260028361311f565b9150612a1d82613833565b600282019050919050565b6000612a3560208361310e565b9150612a408261385c565b602082019050919050565b6000612a5860318361310e565b9150612a6382613885565b604082019050919050565b6000612a7b602c8361310e565b9150612a86826138d4565b604082019050919050565b6000612a9e602f8361310e565b9150612aa982613923565b604082019050919050565b6000612ac1600a8361311f565b9150612acc82613972565b600a82019050919050565b6000612ae460218361310e565b9150612aef8261399b565b604082019050919050565b6000612b07600a8361311f565b9150612b12826139ea565b600a82019050919050565b6000612b2a601d8361311f565b9150612b3582613a13565b601d82019050919050565b6000612b4d60318361310e565b9150612b5882613a3c565b604082019050919050565b6000612b70604f8361311f565b9150612b7b82613a8b565b604f82019050919050565b612b8f816132a9565b82525050565b6000612ba1828461276b565b915081905092915050565b6000612bb8828561276b565b9150612bc4828461276b565b91508190509392505050565b6000612bdc828661276b565b9150612be8828561276b565b9150612bf4828461276b565b9150819050949350505050565b6000612c0d828561279c565b9150612c19828461276b565b9150612c2482612956565b91508190509392505050565b6000612c3b8261281b565b9150612c47828461276b565b915081905092915050565b6000612c5d826128a7565b9150612c69828461276b565b915081905092915050565b6000612c7f82612910565b9150612c8b828461276b565b915081905092915050565b6000612ca182612ab4565b9150612cad828561276b565b9150612cb882612b63565b9150612cc4828461276b565b9150612ccf82612a05565b91508190509392505050565b6000612ce682612afa565b9150612cf2828461276b565b915081905092915050565b6000612d0882612b1d565b9150612d14828461276b565b915081905092915050565b6000602082019050612d3460008301846126db565b92915050565b6000608082019050612d4f60008301876126db565b612d5c60208301866126db565b612d696040830185612b86565b8181036060830152612d7b81846126f9565b905095945050505050565b6000604082019050612d9b60008301856126db565b612da86020830184612b86565b9392505050565b6000602082019050612dc460008301846126ea565b92915050565b60006020820190508181036000830152612de48184612732565b905092915050565b60006040820190508181036000830152612e068185612732565b90508181036020830152612e1a8184612732565b90509392505050565b60006060820190508181036000830152612e3d8186612732565b9050612e4c6020830185612b86565b612e5960408301846126db565b949350505050565b60006020820190508181036000830152612e7a8161283e565b9050919050565b60006020820190508181036000830152612e9a81612861565b9050919050565b60006020820190508181036000830152612eba81612884565b9050919050565b60006020820190508181036000830152612eda816128ca565b9050919050565b60006020820190508181036000830152612efa816128ed565b9050919050565b60006020820190508181036000830152612f1a81612933565b9050919050565b60006020820190508181036000830152612f3a81612979565b9050919050565b60006020820190508181036000830152612f5a8161299c565b9050919050565b60006020820190508181036000830152612f7a816129bf565b9050919050565b60006020820190508181036000830152612f9a816129e2565b9050919050565b60006020820190508181036000830152612fba81612a28565b9050919050565b60006020820190508181036000830152612fda81612a4b565b9050919050565b60006020820190508181036000830152612ffa81612a6e565b9050919050565b6000602082019050818103600083015261301a81612a91565b9050919050565b6000602082019050818103600083015261303a81612ad7565b9050919050565b6000602082019050818103600083015261305a81612b40565b9050919050565b60006020820190506130766000830184612b86565b92915050565b6000613086613097565b90506130928282613327565b919050565b6000604051905090565b600067ffffffffffffffff8211156130bc576130bb61345f565b5b6130c58261348e565b9050602081019050919050565b60008190508160005260206000209050919050565b600081519050919050565b600081519050919050565b600082825260208201905092915050565b600082825260208201905092915050565b600081905092915050565b6000613135826132a9565b9150613140836132a9565b9250827fffffffffffffffffffffffffffffffffffffffffffffffffffffffffffffffff03821115613175576131746133d2565b5b828201905092915050565b600061318b826132a9565b9150613196836132a9565b9250826131a6576131a5613401565b5b828204905092915050565b60006131bc826132a9565b91506131c7836132a9565b9250817fffffffffffffffffffffffffffffffffffffffffffffffffffffffffffffffff0483118215151615613200576131ff6133d2565b5b828202905092915050565b6000613216826132a9565b9150613221836132a9565b925082821015613234576132336133d2565b5b828203905092915050565b600061324a82613289565b9050919050565b60008115159050919050565b60007fffffffff0000000000000000000000000000000000000000000000000000000082169050919050565b600073ffffffffffffffffffffffffffffffffffffffff82169050919050565b6000819050919050565b82818337600083830152505050565b60005b838110156132e05780820151818401526020810190506132c5565b838111156132ef576000848401525b50505050565b6000600282049050600182168061330d57607f821691505b6020821081141561332157613320613430565b5b50919050565b6133308261348e565b810181811067ffffffffffffffff8211171561334f5761334e61345f565b5b80604052505050565b6000613363826132a9565b91507fffffffffffffffffffffffffffffffffffffffffffffffffffffffffffffffff821415613396576133956133d2565b5b600182019050919050565b60006133ac826132a9565b91506133b7836132a9565b9250826133c7576133c6613401565b5b828206905092915050565b7f4e487b7100000000000000000000000000000000000000000000000000000000600052601160045260246000fd5b7f4e487b7100000000000000000000000000000000000000000000000000000000600052601260045260246000fd5b7f4e487b7100000000000000000000000000000000000000000000000000000000600052602260045260246000fd5b7f4e487b7100000000000000000000000000000000000000000000000000000000600052604160045260246000fd5b6000601f19601f8301169050919050565b7f68747470733a2f2f6e6674707265766965772e30786465762e636f6465732f3f60008201527f636f64653d000000000000000000000000000000000000000000000000000000602082015250565b7f4552433732313a207472616e7366657220746f206e6f6e20455243373231526560008201527f63656976657220696d706c656d656e7465720000000000000000000000000000602082015250565b7f4552433732313a207472616e736665722066726f6d20696e636f72726563742060008201527f6f776e6572000000000000000000000000000000000000000000000000000000602082015250565b7f4552433732313a20746f6b656e20616c7265616479206d696e74656400000000600082015250565b7f54484952445f574f524400000000000000000000000000000000000000000000600082015250565b7f4552433732313a207472616e7366657220746f20746865207a65726f2061646460008201527f7265737300000000000000000000000000000000000000000000000000000000602082015250565b7f4552433732313a20617070726f766520746f2063616c6c657200000000000000600082015250565b7f5345434f4e445f574f5244000000000000000000000000000000000000000000600082015250565b7f4552433732313a206f70657261746f7220717565727920666f72206e6f6e657860008201527f697374656e7420746f6b656e0000000000000000000000000000000000000000602082015250565b7f3c2f746578743e3c2f7376673e00000000000000000000000000000000000000600082015250565b7f4552433732313a20617070726f76652063616c6c6572206973206e6f74206f7760008201527f6e6572206e6f7220617070726f76656420666f7220616c6c0000000000000000602082015250565b7f4552433732313a2062616c616e636520717565727920666f7220746865207a6560008201527f726f206164647265737300000000000000000000000000000000000000000000602082015250565b7f4552433732313a206f776e657220717565727920666f72206e6f6e657869737460008201527f656e7420746f6b656e0000000000000000000000000000000000000000000000602082015250565b7f45524337323155524953746f726167653a2055524920736574206f66206e6f6e60008201527f6578697374656e7420746f6b656e000000000000000000000000000000000000602082015250565b7f227d000000000000000000000000000000000000000000000000000000000000600082015250565b7f4552433732313a206d696e7420746f20746865207a65726f2061646472657373600082015250565b7f45524337323155524953746f726167653a2055524920717565727920666f722060008201527f6e6f6e6578697374656e7420746f6b656e000000000000000000000000000000602082015250565b7f4552433732313a20617070726f76656420717565727920666f72206e6f6e657860008201527f697374656e7420746f6b656e0000000000000000000000000000000000000000602082015250565b7f4552433732314d657461646174613a2055524920717565727920666f72206e6f60008201527f6e6578697374656e7420746f6b656e0000000000000000000000000000000000602082015250565b7f7b226e616d65223a202200000000000000000000000000000000000000000000600082015250565b7f4552433732313a20617070726f76616c20746f2063757272656e74206f776e6560008201527f7200000000000000000000000000000000000000000000000000000000000000602082015250565b7f46495253545f574f524400000000000000000000000000000000000000000000600082015250565b7f646174613a6170706c69636174696f6e2f6a736f6e3b6261736536342c000000600082015250565b7f4552433732313a207472616e736665722063616c6c6572206973206e6f74206f60008201527f776e6572206e6f7220617070726f766564000000000000000000000000000000602082015250565b7f222c20226465736372697074696f6e223a2022497427732068697020746f206260008201527f6520737175617265222c2022696d616765223a2022646174613a696d6167652f60208201527f7376672b786d6c3b6261736536342c0000000000000000000000000000000000604082015250565b613b098161323f565b8114613b1457600080fd5b50565b613b2081613251565b8114613b2b57600080fd5b50565b613b378161325d565b8114613b4257600080fd5b50565b613b4e816132a9565b8114613b5957600080fd5b5056fe416e204e465420772f20494420257320686173206265656e206d696e74656420746f2025734142434445464748494a4b4c4d4e4f505152535455565758595a6162636465666768696a6b6c6d6e6f707172737475767778797a303132333435363738392b2fa2646970667358221220aee9cc9bf427c9a04c57f2efd099e6918ed522614248a4717a8f4b3e643ebd8264736f6c634300080100333c73766720786d6c6e733d27687474703a2f2f7777772e77332e6f72672f323030302f73766727207072657365727665417370656374526174696f3d27784d696e594d696e206d656574272076696577426f783d273020302033353020333530273e3c7374796c653e2e62617365207b2066696c6c3a2077686974653b20666f6e742d66616d696c793a2073657269663b20666f6e742d73697a653a20313470783b207d3c2f7374796c653e3c726563742077696474683d273130302527206865696768743d2731303025272066696c6c3d27626c61636b27202f3e3c7465787420783d273530252720793d273530252720636c6173733d27626173652720646f6d696e616e742d626173656c696e653d276d6964646c652720746578742d616e63686f723d276d6964646c65273e",
  "linkReferences": {},
  "deployedLinkReferences": {}
}