{
    "_format": "hh-sol-artifact-1",
    "contractName": "WhiskeyNFT",
    "sourceName": "contracts/WhiskeyNFT.sol",
    "abi": [
        {
            "inputs": [],
            "stateMutability": "nonpayable",
            "type": "constructor"
        },
        {
            "anonymous": false,
            "inputs": [
                {
                    "indexed": true,
                    "internalType": "address",
                    "name": "owner",
                    "type": "address"
                },
                {
                    "indexed": true,
                    "internalType": "address",
                    "name": "approved",
                    "type": "address"
                },
                {
                    "indexed": true,
                    "internalType": "uint256",
                    "name": "tokenId",
                    "type": "uint256"
                }
            ],
            "name": "Approval",
            "type": "event"
        },
        {
            "anonymous": false,
            "inputs": [
                {
                    "indexed": true,
                    "internalType": "address",
                    "name": "owner",
                    "type": "address"
                },
                {
                    "indexed": true,
                    "internalType": "address",
                    "name": "operator",
                    "type": "address"
                },
                {
                    "indexed": false,
                    "internalType": "bool",
                    "name": "approved",
                    "type": "bool"
                }
            ],
            "name": "ApprovalForAll",
            "type": "event"
        },
        {
            "anonymous": false,
            "inputs": [
                {
                    "indexed": true,
                    "internalType": "address",
                    "name": "from",
                    "type": "address"
                },
                {
                    "indexed": true,
                    "internalType": "address",
                    "name": "to",
                    "type": "address"
                },
                {
                    "indexed": true,
                    "internalType": "uint256",
                    "name": "tokenId",
                    "type": "uint256"
                }
            ],
            "name": "Transfer",
            "type": "event"
        },
        {
            "inputs": [
                {
                    "internalType": "address",
                    "name": "to",
                    "type": "address"
                },
                {
                    "internalType": "uint256",
                    "name": "tokenId",
                    "type": "uint256"
                }
            ],
            "name": "approve",
            "outputs": [],
            "stateMutability": "nonpayable",
            "type": "function"
        },
        {
            "inputs": [
                {
                    "internalType": "address",
                    "name": "owner",
                    "type": "address"
                }
            ],
            "name": "balanceOf",
            "outputs": [
                {
                    "internalType": "uint256",
                    "name": "",
                    "type": "uint256"
                }
            ],
            "stateMutability": "view",
            "type": "function"
        },
        {
            "inputs": [
                {
                    "internalType": "uint256",
                    "name": "tokenId",
                    "type": "uint256"
                }
            ],
            "name": "getApproved",
            "outputs": [
                {
                    "internalType": "address",
                    "name": "",
                    "type": "address"
                }
            ],
            "stateMutability": "view",
            "type": "function"
        },
        {
            "inputs": [
                {
                    "internalType": "address",
                    "name": "owner",
                    "type": "address"
                },
                {
                    "internalType": "address",
                    "name": "operator",
                    "type": "address"
                }
            ],
            "name": "isApprovedForAll",
            "outputs": [
                {
                    "internalType": "bool",
                    "name": "",
                    "type": "bool"
                }
            ],
            "stateMutability": "view",
            "type": "function"
        },
        {
            "inputs": [],
            "name": "makeWhiskeyNFT",
            "outputs": [],
            "stateMutability": "nonpayable",
            "type": "function"
        },
        {
            "inputs": [],
            "name": "name",
            "outputs": [
                {
                    "internalType": "string",
                    "name": "",
                    "type": "string"
                }
            ],
            "stateMutability": "view",
            "type": "function"
        },
        {
            "inputs": [
                {
                    "internalType": "uint256",
                    "name": "tokenId",
                    "type": "uint256"
                }
            ],
            "name": "ownerOf",
            "outputs": [
                {
                    "internalType": "address",
                    "name": "",
                    "type": "address"
                }
            ],
            "stateMutability": "view",
            "type": "function"
        },
        {
            "inputs": [
                {
                    "internalType": "uint256",
                    "name": "tokenId",
                    "type": "uint256"
                }
            ],
            "name": "pickRandomFirstWord",
            "outputs": [
                {
                    "internalType": "string",
                    "name": "",
                    "type": "string"
                }
            ],
            "stateMutability": "view",
            "type": "function"
        },
        {
            "inputs": [
                {
                    "internalType": "uint256",
                    "name": "tokenId",
                    "type": "uint256"
                }
            ],
            "name": "pickRandomSecondWord",
            "outputs": [
                {
                    "internalType": "string",
                    "name": "",
                    "type": "string"
                }
            ],
            "stateMutability": "view",
            "type": "function"
        },
        {
            "inputs": [
                {
                    "internalType": "uint256",
                    "name": "tokenId",
                    "type": "uint256"
                }
            ],
            "name": "pickRandomThirdWord",
            "outputs": [
                {
                    "internalType": "string",
                    "name": "",
                    "type": "string"
                }
            ],
            "stateMutability": "view",
            "type": "function"
        },
        {
            "inputs": [
                {
                    "internalType": "address",
                    "name": "from",
                    "type": "address"
                },
                {
                    "internalType": "address",
                    "name": "to",
                    "type": "address"
                },
                {
                    "internalType": "uint256",
                    "name": "tokenId",
                    "type": "uint256"
                }
            ],
            "name": "safeTransferFrom",
            "outputs": [],
            "stateMutability": "nonpayable",
            "type": "function"
        },
        {
            "inputs": [
                {
                    "internalType": "address",
                    "name": "from",
                    "type": "address"
                },
                {
                    "internalType": "address",
                    "name": "to",
                    "type": "address"
                },
                {
                    "internalType": "uint256",
                    "name": "tokenId",
                    "type": "uint256"
                },
                {
                    "internalType": "bytes",
                    "name": "_data",
                    "type": "bytes"
                }
            ],
            "name": "safeTransferFrom",
            "outputs": [],
            "stateMutability": "nonpayable",
            "type": "function"
        },
        {
            "inputs": [
                {
                    "internalType": "address",
                    "name": "operator",
                    "type": "address"
                },
                {
                    "internalType": "bool",
                    "name": "approved",
                    "type": "bool"
                }
            ],
            "name": "setApprovalForAll",
            "outputs": [],
            "stateMutability": "nonpayable",
            "type": "function"
        },
        {
            "inputs": [
                {
                    "internalType": "bytes4",
                    "name": "interfaceId",
                    "type": "bytes4"
                }
            ],
            "name": "supportsInterface",
            "outputs": [
                {
                    "internalType": "bool",
                    "name": "",
                    "type": "bool"
                }
            ],
            "stateMutability": "view",
            "type": "function"
        },
        {
            "inputs": [],
            "name": "symbol",
            "outputs": [
                {
                    "internalType": "string",
                    "name": "",
                    "type": "string"
                }
            ],
            "stateMutability": "view",
            "type": "function"
        },
        {
            "inputs": [
                {
                    "internalType": "uint256",
                    "name": "tokenId",
                    "type": "uint256"
                }
            ],
            "name": "tokenURI",
            "outputs": [
                {
                    "internalType": "string",
                    "name": "",
                    "type": "string"
                }
            ],
            "stateMutability": "view",
            "type": "function"
        },
        {
            "inputs": [
                {
                    "internalType": "address",
                    "name": "from",
                    "type": "address"
                },
                {
                    "internalType": "address",
                    "name": "to",
                    "type": "address"
                },
                {
                    "internalType": "uint256",
                    "name": "tokenId",
                    "type": "uint256"
                }
            ],
            "name": "transferFrom",
            "outputs": [],
            "stateMutability": "nonpayable",
            "type": "function"
        }
    ],
    "bytecode": "0x608060405260405180610160016040528061012f815260200162004bc261012f9139600890805190602001906200003892919062000d6b565b506040518061020001604052806040518060400160405280600381526020017f444f47000000000000000000000000000000000000000000000000000000000081525081526020016040518060400160405280600481526020017f474f41540000000000000000000000000000000000000000000000000000000081525081526020016040518060400160405280600681526020017f444f4e4b4559000000000000000000000000000000000000000000000000000081525081526020016040518060400160405280600381526020017f434154000000000000000000000000000000000000000000000000000000000081525081526020016040518060400160405280600981526020017f504f52435550494e45000000000000000000000000000000000000000000000081525081526020016040518060400160405280600a81526020017f5248494e4f4345524f530000000000000000000000000000000000000000000081525081526020016040518060400160405280600381526020017f454d55000000000000000000000000000000000000000000000000000000000081525081526020016040518060400160405280600581526020017f50414e444100000000000000000000000000000000000000000000000000000081525081526020016040518060400160405280600581526020017f534845455000000000000000000000000000000000000000000000000000000081525081526020016040518060400160405280600781526020017f474952414646450000000000000000000000000000000000000000000000000081525081526020016040518060400160405280600481526020017f4c494f4e0000000000000000000000000000000000000000000000000000000081525081526020016040518060400160405280600881526020017f4d41524d4f53455400000000000000000000000000000000000000000000000081525081526020016040518060400160405280600781526020017f4d4545524b41540000000000000000000000000000000000000000000000000081525081526020016040518060400160405280600581526020017f4d4143415700000000000000000000000000000000000000000000000000000081525081526020016040518060400160405280600b81526020017f524154544c45534e414b4500000000000000000000000000000000000000000081525081526020016040518060400160405280600981526020017f41524d4144494c4c4f000000000000000000000000000000000000000000000081525081525060099060106200040592919062000dfc565b506040518061020001604052806040518060400160405280600881526020017f464f4f5442414c4c00000000000000000000000000000000000000000000000081525081526020016040518060400160405280600681526020017f534f43434552000000000000000000000000000000000000000000000000000081525081526020016040518060400160405280600681526020017f484f434b4559000000000000000000000000000000000000000000000000000081525081526020016040518060400160405280600881526020017f4c4143524f53534500000000000000000000000000000000000000000000000081525081526020016040518060400160405280600881526020017f4241534542414c4c00000000000000000000000000000000000000000000000081525081526020016040518060400160405280600a81526020017f4241534b455442414c4c0000000000000000000000000000000000000000000081525081526020016040518060400160405280600781526020017f52554e4e494e470000000000000000000000000000000000000000000000000081525081526020016040518060400160405280600781526020017f4359434c494e470000000000000000000000000000000000000000000000000081525081526020016040518060400160405280600681526020017f424f58494e47000000000000000000000000000000000000000000000000000081525081526020016040518060400160405280600581526020017f525547425900000000000000000000000000000000000000000000000000000081525081526020016040518060400160405280600881526020017f534f465442414c4c00000000000000000000000000000000000000000000000081525081526020016040518060400160405280600681526020017f524143494e47000000000000000000000000000000000000000000000000000081525081526020016040518060400160405280600c81526020017f41524d57524553544c494e47000000000000000000000000000000000000000081525081526020016040518060400160405280600681526020017f444953435553000000000000000000000000000000000000000000000000000081525081526020016040518060400160405280600781526020017f465249534245450000000000000000000000000000000000000000000000000081525081526020016040518060400160405280600a81526020017f5049434b4c4542414c4c00000000000000000000000000000000000000000000815250815250600a906010620007d292919062000dfc565b506040518061020001604052806040518060400160405280600581526020017f424c55455300000000000000000000000000000000000000000000000000000081525081526020016040518060400160405280600481526020017f524f434b0000000000000000000000000000000000000000000000000000000081525081526020016040518060400160405280600581526020017f5357494e4700000000000000000000000000000000000000000000000000000081525081526020016040518060400160405280600381526020017f45444d000000000000000000000000000000000000000000000000000000000081525081526020016040518060400160405280600781526020017f434f554e5452590000000000000000000000000000000000000000000000000081525081526020016040518060400160405280600581526020017f4f5045524100000000000000000000000000000000000000000000000000000081525081526020016040518060400160405280600681526020017f484950484f50000000000000000000000000000000000000000000000000000081525081526020016040518060400160405280600581526020017f4d4554414c00000000000000000000000000000000000000000000000000000081525081526020016040518060400160405280600381526020017f524150000000000000000000000000000000000000000000000000000000000081525081526020016040518060400160405280600481526020017f4b504f500000000000000000000000000000000000000000000000000000000081525081526020016040518060400160405280600881526020017f4146524f4245415400000000000000000000000000000000000000000000000081525081526020016040518060400160405280600481526020017f464f4c4b0000000000000000000000000000000000000000000000000000000081525081526020016040518060400160405280600881526020017f464c414d454e434f00000000000000000000000000000000000000000000000081525081526020016040518060400160405280600881526020017f41434150454c4c4100000000000000000000000000000000000000000000000081525081526020016040518060400160405280600981526020017f424c55454752415353000000000000000000000000000000000000000000000081525081526020016040518060400160405280600581526020017f444953434f000000000000000000000000000000000000000000000000000000815250815250600b90601062000b9f92919062000dfc565b5034801562000bad57600080fd5b506040518060400160405280600a81526020017f576869736b65794e4654000000000000000000000000000000000000000000008152506040518060400160405280600581526020017f4452494e4b000000000000000000000000000000000000000000000000000000815250816000908051906020019062000c3292919062000d6b565b50806001908051906020019062000c4b92919062000d6b565b50505062000c996040518060400160405280601c81526020017f4b656570206772696e64696e672e20596f7520676f742074686973210000000081525062000c9f60201b6200115f1760201c565b6200101d565b62000d3f8160405160240162000cb6919062000f31565b6040516020818303038152906040527f41304fac000000000000000000000000000000000000000000000000000000007bffffffffffffffffffffffffffffffffffffffffffffffffffffffff19166020820180517bffffffffffffffffffffffffffffffffffffffffffffffffffffffff838183161783525050505062000d4260201b60201c565b50565b60008151905060006a636f6e736f6c652e6c6f679050602083016000808483855afa5050505050565b82805462000d799062000fa7565b90600052602060002090601f01602090048101928262000d9d576000855562000de9565b82601f1062000db857805160ff191683800117855562000de9565b8280016001018555821562000de9579182015b8281111562000de857825182559160200191906001019062000dcb565b5b50905062000df8919062000e63565b5090565b82805482825590600052602060002090810192821562000e50579160200282015b8281111562000e4f57825182908051906020019062000e3e92919062000d6b565b509160200191906001019062000e1d565b5b50905062000e5f919062000e82565b5090565b5b8082111562000e7e57600081600090555060010162000e64565b5090565b5b8082111562000ea6576000818162000e9c919062000eaa565b5060010162000e83565b5090565b50805462000eb89062000fa7565b6000825580601f1062000ecc575062000eed565b601f01602090049060005260206000209081019062000eec919062000e63565b5b50565b600062000efd8262000f55565b62000f09818562000f60565b935062000f1b81856020860162000f71565b62000f26816200100c565b840191505092915050565b6000602082019050818103600083015262000f4d818462000ef0565b905092915050565b600081519050919050565b600082825260208201905092915050565b60005b8381101562000f9157808201518184015260208101905062000f74565b8381111562000fa1576000848401525b50505050565b6000600282049050600182168062000fc057607f821691505b6020821081141562000fd75762000fd662000fdd565b5b50919050565b7f4e487b7100000000000000000000000000000000000000000000000000000000600052602260045260246000fd5b6000601f19601f8301169050919050565b613b95806200102d6000396000f3fe608060405234801561001057600080fd5b506004361061010b5760003560e01c8063707c8424116100a2578063b187301f11610071578063b187301f146102b6578063b88d4fde146102e6578063c575757a14610302578063c87b56dd14610332578063e985e9c5146103625761010b565b8063707c84241461024257806370a082311461024c57806395d89b411461027c578063a22cb4651461029a5761010b565b806323b872dd116100de57806323b872dd146101aa5780632de38d68146101c657806342842e0e146101f65780636352211e146102125761010b565b806301ffc9a71461011057806306fdde0314610140578063081812fc1461015e578063095ea7b31461018e575b600080fd5b61012a60048036038101906101259190612627565b610392565b6040516101379190612d4d565b60405180910390f35b610148610474565b6040516101559190612d68565b60405180910390f35b61017860048036038101906101739190612679565b610506565b6040516101859190612ce6565b60405180910390f35b6101a860048036038101906101a391906125eb565b61058b565b005b6101c460048036038101906101bf91906124e5565b6106a3565b005b6101e060048036038101906101db9190612679565b610703565b6040516101ed9190612d68565b60405180910390f35b610210600480360381019061020b91906124e5565b610821565b005b61022c60048036038101906102279190612679565b610841565b6040516102399190612ce6565b60405180910390f35b61024a6108f3565b005b61026660048036038101906102619190612480565b610b7b565b6040516102739190612fff565b60405180910390f35b610284610c33565b6040516102919190612d68565b60405180910390f35b6102b460048036038101906102af91906125af565b610cc5565b005b6102d060048036038101906102cb9190612679565b610cdb565b6040516102dd9190612d68565b60405180910390f35b61030060048036038101906102fb9190612534565b610df9565b005b61031c60048036038101906103179190612679565b610e5b565b6040516103299190612d68565b60405180910390f35b61034c60048036038101906103479190612679565b610f79565b6040516103599190612d68565b60405180910390f35b61037c600480360381019061037791906124a9565b6110cb565b6040516103899190612d4d565b60405180910390f35b60007f80ac58cd000000000000000000000000000000000000000000000000000000007bffffffffffffffffffffffffffffffffffffffffffffffffffffffff1916827bffffffffffffffffffffffffffffffffffffffffffffffffffffffff1916148061045d57507f5b5e139f000000000000000000000000000000000000000000000000000000007bffffffffffffffffffffffffffffffffffffffffffffffffffffffff1916827bffffffffffffffffffffffffffffffffffffffffffffffffffffffff1916145b8061046d575061046c826111f8565b5b9050919050565b60606000805461048390613293565b80601f01602080910402602001604051908101604052809291908181526020018280546104af90613293565b80156104fc5780601f106104d1576101008083540402835291602001916104fc565b820191906000526020600020905b8154815290600101906020018083116104df57829003601f168201915b5050505050905090565b600061051182611262565b610550576040517f08c379a000000000000000000000000000000000000000000000000000000000815260040161054790612f7f565b60405180910390fd5b6004600083815260200190815260200160002060009054906101000a900473ffffffffffffffffffffffffffffffffffffffff169050919050565b600061059682610841565b90508073ffffffffffffffffffffffffffffffffffffffff168373ffffffffffffffffffffffffffffffffffffffff161415610607576040517f08c379a00000000000000000000000000000000000000000000000000000000081526004016105fe90612fbf565b60405180910390fd5b8073ffffffffffffffffffffffffffffffffffffffff166106266112ce565b73ffffffffffffffffffffffffffffffffffffffff16148061065557506106548161064f6112ce565b6110cb565b5b610694576040517f08c379a000000000000000000000000000000000000000000000000000000000815260040161068b90612ebf565b60405180910390fd5b61069e83836112d6565b505050565b6106b46106ae6112ce565b8261138f565b6106f3576040517f08c379a00000000000000000000000000000000000000000000000000000000081526004016106ea90612fdf565b60405180910390fd5b6106fe83838361146d565b505050565b60606000610737610713846116d4565b6040516020016107239190612ca2565b604051602081830303815290604052611881565b90506009805490508161074a919061333f565b905060098181548110610786577f4e487b7100000000000000000000000000000000000000000000000000000000600052603260045260246000fd5b90600052602060002001805461079b90613293565b80601f01602080910402602001604051908101604052809291908181526020018280546107c790613293565b80156108145780601f106107e957610100808354040283529160200191610814565b820191906000526020600020905b8154815290600101906020018083116107f757829003601f168201915b5050505050915050919050565b61083c83838360405180602001604052806000815250610df9565b505050565b6000806002600084815260200190815260200160002060009054906101000a900473ffffffffffffffffffffffffffffffffffffffff169050600073ffffffffffffffffffffffffffffffffffffffff168173ffffffffffffffffffffffffffffffffffffffff1614156108ea576040517f08c379a00000000000000000000000000000000000000000000000000000000081526004016108e190612eff565b60405180910390fd5b80915050919050565b60006108ff60076118b4565b9050600061090c82610703565b9050600061091983610cdb565b9050600061092684610e5b565b9050600083838360405160200161093f93929190612b97565b60405160208183030381529060405290506000600882604051602001610966929190612bc8565b604051602081830303815290604052905060006109ab83610986846118c2565b604051602001610997929190612c5d565b6040516020818303038152906040526118c2565b90506000816040516020016109c09190612cc4565b6040516020818303038152906040529050610a0f6040518060400160405280601281526020017f0a2d2d2d2d2d2d2d2d2d2d2d2d2d2d2d2d2d000000000000000000000000000081525061115f565b610a4e6040518060400160405280601281526020017f726177206461746120746f6b656e5552493a000000000000000000000000000081525082611a80565b610a8c6040518060400160405280600181526020017f200000000000000000000000000000000000000000000000000000000000000081525061115f565b610aca6040518060400160405280600c81526020017f4e465420507265766965773a000000000000000000000000000000000000000081525061115f565b610af281604051602001610ade9190612bf7565b60405160208183030381529060405261115f565b610b306040518060400160405280601281526020017f2d2d2d2d2d2d2d2d2d2d2d2d2d2d2d2d2d0a000000000000000000000000000081525061115f565b610b3a3389611b1c565b610b448882611b3a565b610b4e6007611bae565b610b71604051806060016040528060258152602001613afb602591398933611bc4565b5050505050505050565b60008073ffffffffffffffffffffffffffffffffffffffff168273ffffffffffffffffffffffffffffffffffffffff161415610bec576040517f08c379a0000000000000000000000000000000000000000000000000000000008152600401610be390612edf565b60405180910390fd5b600360008373ffffffffffffffffffffffffffffffffffffffff1673ffffffffffffffffffffffffffffffffffffffff168152602001908152602001600020549050919050565b606060018054610c4290613293565b80601f0160208091040260200160405190810160405280929190818152602001828054610c6e90613293565b8015610cbb5780601f10610c9057610100808354040283529160200191610cbb565b820191906000526020600020905b815481529060010190602001808311610c9e57829003601f168201915b5050505050905090565b610cd7610cd06112ce565b8383611c63565b5050565b60606000610d0f610ceb846116d4565b604051602001610cfb9190612c3b565b604051602081830303815290604052611881565b9050600a8054905081610d22919061333f565b9050600a8181548110610d5e577f4e487b7100000000000000000000000000000000000000000000000000000000600052603260045260246000fd5b906000526020600020018054610d7390613293565b80601f0160208091040260200160405190810160405280929190818152602001828054610d9f90613293565b8015610dec5780601f10610dc157610100808354040283529160200191610dec565b820191906000526020600020905b815481529060010190602001808311610dcf57829003601f168201915b5050505050915050919050565b610e0a610e046112ce565b8361138f565b610e49576040517f08c379a0000000000000000000000000000000000000000000000000000000008152600401610e4090612fdf565b60405180910390fd5b610e5584848484611dd0565b50505050565b60606000610e8f610e6b846116d4565b604051602001610e7b9190612c19565b604051602081830303815290604052611881565b9050600b8054905081610ea2919061333f565b9050600b8181548110610ede577f4e487b7100000000000000000000000000000000000000000000000000000000600052603260045260246000fd5b906000526020600020018054610ef390613293565b80601f0160208091040260200160405190810160405280929190818152602001828054610f1f90613293565b8015610f6c5780601f10610f4157610100808354040283529160200191610f6c565b820191906000526020600020905b815481529060010190602001808311610f4f57829003601f168201915b5050505050915050919050565b6060610f8482611262565b610fc3576040517f08c379a0000000000000000000000000000000000000000000000000000000008152600401610fba90612f5f565b60405180910390fd5b6000600660008481526020019081526020016000208054610fe390613293565b80601f016020809104026020016040519081016040528092919081815260200182805461100f90613293565b801561105c5780601f106110315761010080835404028352916020019161105c565b820191906000526020600020905b81548152906001019060200180831161103f57829003601f168201915b50505050509050600061106d611e2c565b90506000815114156110835781925050506110c6565b6000825111156110b85780826040516020016110a0929190612b73565b604051602081830303815290604052925050506110c6565b6110c184611e43565b925050505b919050565b6000600560008473ffffffffffffffffffffffffffffffffffffffff1673ffffffffffffffffffffffffffffffffffffffff16815260200190815260200160002060008373ffffffffffffffffffffffffffffffffffffffff1673ffffffffffffffffffffffffffffffffffffffff16815260200190815260200160002060009054906101000a900460ff16905092915050565b6111f5816040516024016111739190612d68565b6040516020818303038152906040527f41304fac000000000000000000000000000000000000000000000000000000007bffffffffffffffffffffffffffffffffffffffffffffffffffffffff19166020820180517bffffffffffffffffffffffffffffffffffffffffffffffffffffffff8381831617835250505050611eea565b50565b60007f01ffc9a7000000000000000000000000000000000000000000000000000000007bffffffffffffffffffffffffffffffffffffffffffffffffffffffff1916827bffffffffffffffffffffffffffffffffffffffffffffffffffffffff1916149050919050565b60008073ffffffffffffffffffffffffffffffffffffffff166002600084815260200190815260200160002060009054906101000a900473ffffffffffffffffffffffffffffffffffffffff1673ffffffffffffffffffffffffffffffffffffffff1614159050919050565b600033905090565b816004600083815260200190815260200160002060006101000a81548173ffffffffffffffffffffffffffffffffffffffff021916908373ffffffffffffffffffffffffffffffffffffffff160217905550808273ffffffffffffffffffffffffffffffffffffffff1661134983610841565b73ffffffffffffffffffffffffffffffffffffffff167f8c5be1e5ebec7d5bd14f71427d1e84f3dd0314c0f7b2291e5b200ac8c7c3b92560405160405180910390a45050565b600061139a82611262565b6113d9576040517f08c379a00000000000000000000000000000000000000000000000000000000081526004016113d090612e9f565b60405180910390fd5b60006113e483610841565b90508073ffffffffffffffffffffffffffffffffffffffff168473ffffffffffffffffffffffffffffffffffffffff161480611426575061142581856110cb565b5b8061146457508373ffffffffffffffffffffffffffffffffffffffff1661144c84610506565b73ffffffffffffffffffffffffffffffffffffffff16145b91505092915050565b8273ffffffffffffffffffffffffffffffffffffffff1661148d82610841565b73ffffffffffffffffffffffffffffffffffffffff16146114e3576040517f08c379a00000000000000000000000000000000000000000000000000000000081526004016114da90612e1f565b60405180910390fd5b600073ffffffffffffffffffffffffffffffffffffffff168273ffffffffffffffffffffffffffffffffffffffff161415611553576040517f08c379a000000000000000000000000000000000000000000000000000000000815260040161154a90612e5f565b60405180910390fd5b61155e838383611f13565b6115696000826112d6565b6001600360008573ffffffffffffffffffffffffffffffffffffffff1673ffffffffffffffffffffffffffffffffffffffff16815260200190815260200160002060008282546115b991906131a9565b925050819055506001600360008473ffffffffffffffffffffffffffffffffffffffff1673ffffffffffffffffffffffffffffffffffffffff168152602001908152602001600020600082825461161091906130c8565b92505081905550816002600083815260200190815260200160002060006101000a81548173ffffffffffffffffffffffffffffffffffffffff021916908373ffffffffffffffffffffffffffffffffffffffff160217905550808273ffffffffffffffffffffffffffffffffffffffff168473ffffffffffffffffffffffffffffffffffffffff167fddf252ad1be2c89b69c2b068fc378daa952ba7f163c4a11628f55a4df523b3ef60405160405180910390a46116cf838383611f18565b505050565b6060600082141561171c576040518060400160405280600181526020017f3000000000000000000000000000000000000000000000000000000000000000815250905061187c565b600082905060005b6000821461174e578080611737906132f6565b915050600a82611747919061311e565b9150611724565b60008167ffffffffffffffff811115611790577f4e487b7100000000000000000000000000000000000000000000000000000000600052604160045260246000fd5b6040519080825280601f01601f1916602001820160405280156117c25781602001600182028036833780820191505090505b5090505b60008514611875576001826117db91906131a9565b9150600a856117ea919061333f565b60306117f691906130c8565b60f81b818381518110611832577f4e487b7100000000000000000000000000000000000000000000000000000000600052603260045260246000fd5b60200101907effffffffffffffffffffffffffffffffffffffffffffffffffffffffffffff1916908160001a905350600a8561186e919061311e565b94506117c6565b8093505050505b919050565b6000816040516020016118949190612b5c565b6040516020818303038152906040528051906020012060001c9050919050565b600081600001549050919050565b606060008251905060008114156118eb5760405180602001604052806000815250915050611a7b565b600060036002836118fc91906130c8565b611906919061311e565b6004611912919061314f565b9050600060208261192391906130c8565b67ffffffffffffffff811115611962577f4e487b7100000000000000000000000000000000000000000000000000000000600052604160045260246000fd5b6040519080825280601f01601f1916602001820160405280156119945781602001600182028036833780820191505090505b5090506000604051806060016040528060408152602001613b20604091399050600181016020830160005b86811015611a385760038101905062ffffff818a015116603f8160121c168401518060081b905060ff603f83600c1c1686015116810190508060081b905060ff603f8360061c1686015116810190508060081b905060ff603f831686015116810190508060e01b905080845260048401935050506119bf565b506003860660018114611a525760028114611a6257611a6d565b613d3d60f01b6002830352611a6d565b603d60f81b60018303525b508484525050819450505050505b919050565b611b188282604051602401611a96929190612d8a565b6040516020818303038152906040527f4b5c4277000000000000000000000000000000000000000000000000000000007bffffffffffffffffffffffffffffffffffffffffffffffffffffffff19166020820180517bffffffffffffffffffffffffffffffffffffffffffffffffffffffff8381831617835250505050611eea565b5050565b611b36828260405180602001604052806000815250611f1d565b5050565b611b4382611262565b611b82576040517f08c379a0000000000000000000000000000000000000000000000000000000008152600401611b7990612f1f565b60405180910390fd5b80600660008481526020019081526020016000209080519060200190611ba992919061230c565b505050565b6001816000016000828254019250508190555050565b611c5e838383604051602401611bdc93929190612dc1565b6040516020818303038152906040527fe3849f79000000000000000000000000000000000000000000000000000000007bffffffffffffffffffffffffffffffffffffffffffffffffffffffff19166020820180517bffffffffffffffffffffffffffffffffffffffffffffffffffffffff8381831617835250505050611eea565b505050565b8173ffffffffffffffffffffffffffffffffffffffff168373ffffffffffffffffffffffffffffffffffffffff161415611cd2576040517f08c379a0000000000000000000000000000000000000000000000000000000008152600401611cc990612e7f565b60405180910390fd5b80600560008573ffffffffffffffffffffffffffffffffffffffff1673ffffffffffffffffffffffffffffffffffffffff16815260200190815260200160002060008473ffffffffffffffffffffffffffffffffffffffff1673ffffffffffffffffffffffffffffffffffffffff16815260200190815260200160002060006101000a81548160ff0219169083151502179055508173ffffffffffffffffffffffffffffffffffffffff168373ffffffffffffffffffffffffffffffffffffffff167f17307eab39ab6107e8899845ad3d59bd9653f200f220920489ca2b5937696c3183604051611dc39190612d4d565b60405180910390a3505050565b611ddb84848461146d565b611de784848484611f78565b611e26576040517f08c379a0000000000000000000000000000000000000000000000000000000008152600401611e1d90612dff565b60405180910390fd5b50505050565b606060405180602001604052806000815250905090565b6060611e4e82611262565b611e8d576040517f08c379a0000000000000000000000000000000000000000000000000000000008152600401611e8490612f9f565b60405180910390fd5b6000611e97611e2c565b90506000815111611eb75760405180602001604052806000815250611ee2565b80611ec1846116d4565b604051602001611ed2929190612b73565b6040516020818303038152906040525b915050919050565b60008151905060006a636f6e736f6c652e6c6f679050602083016000808483855afa5050505050565b505050565b505050565b611f27838361210f565b611f346000848484611f78565b611f73576040517f08c379a0000000000000000000000000000000000000000000000000000000008152600401611f6a90612dff565b60405180910390fd5b505050565b6000611f998473ffffffffffffffffffffffffffffffffffffffff166122e9565b15612102578373ffffffffffffffffffffffffffffffffffffffff1663150b7a02611fc26112ce565b8786866040518563ffffffff1660e01b8152600401611fe49493929190612d01565b602060405180830381600087803b158015611ffe57600080fd5b505af192505050801561202f57506040513d601f19601f8201168201806040525081019061202c9190612650565b60015b6120b2573d806000811461205f576040519150601f19603f3d011682016040523d82523d6000602084013e612064565b606091505b506000815114156120aa576040517f08c379a00000000000000000000000000000000000000000000000000000000081526004016120a190612dff565b60405180910390fd5b805181602001fd5b63150b7a0260e01b7bffffffffffffffffffffffffffffffffffffffffffffffffffffffff1916817bffffffffffffffffffffffffffffffffffffffffffffffffffffffff191614915050612107565b600190505b949350505050565b600073ffffffffffffffffffffffffffffffffffffffff168273ffffffffffffffffffffffffffffffffffffffff16141561217f576040517f08c379a000000000000000000000000000000000000000000000000000000000815260040161217690612f3f565b60405180910390fd5b61218881611262565b156121c8576040517f08c379a00000000000000000000000000000000000000000000000000000000081526004016121bf90612e3f565b60405180910390fd5b6121d460008383611f13565b6001600360008473ffffffffffffffffffffffffffffffffffffffff1673ffffffffffffffffffffffffffffffffffffffff168152602001908152602001600020600082825461222491906130c8565b92505081905550816002600083815260200190815260200160002060006101000a81548173ffffffffffffffffffffffffffffffffffffffff021916908373ffffffffffffffffffffffffffffffffffffffff160217905550808273ffffffffffffffffffffffffffffffffffffffff16600073ffffffffffffffffffffffffffffffffffffffff167fddf252ad1be2c89b69c2b068fc378daa952ba7f163c4a11628f55a4df523b3ef60405160405180910390a46122e560008383611f18565b5050565b6000808273ffffffffffffffffffffffffffffffffffffffff163b119050919050565b82805461231890613293565b90600052602060002090601f01602090048101928261233a5760008555612381565b82601f1061235357805160ff1916838001178555612381565b82800160010185558215612381579182015b82811115612380578251825591602001919060010190612365565b5b50905061238e9190612392565b5090565b5b808211156123ab576000816000905550600101612393565b5090565b60006123c26123bd8461303f565b61301a565b9050828152602081018484840111156123da57600080fd5b6123e5848285613251565b509392505050565b6000813590506123fc81613a9e565b92915050565b60008135905061241181613ab5565b92915050565b60008135905061242681613acc565b92915050565b60008151905061243b81613acc565b92915050565b600082601f83011261245257600080fd5b81356124628482602086016123af565b91505092915050565b60008135905061247a81613ae3565b92915050565b60006020828403121561249257600080fd5b60006124a0848285016123ed565b91505092915050565b600080604083850312156124bc57600080fd5b60006124ca858286016123ed565b92505060206124db858286016123ed565b9150509250929050565b6000806000606084860312156124fa57600080fd5b6000612508868287016123ed565b9350506020612519868287016123ed565b925050604061252a8682870161246b565b9150509250925092565b6000806000806080858703121561254a57600080fd5b6000612558878288016123ed565b9450506020612569878288016123ed565b935050604061257a8782880161246b565b925050606085013567ffffffffffffffff81111561259757600080fd5b6125a387828801612441565b91505092959194509250565b600080604083850312156125c257600080fd5b60006125d0858286016123ed565b92505060206125e185828601612402565b9150509250929050565b600080604083850312156125fe57600080fd5b600061260c858286016123ed565b925050602061261d8582860161246b565b9150509250929050565b60006020828403121561263957600080fd5b600061264784828501612417565b91505092915050565b60006020828403121561266257600080fd5b60006126708482850161242c565b91505092915050565b60006020828403121561268b57600080fd5b60006126998482850161246b565b91505092915050565b6126ab816131dd565b82525050565b6126ba816131ef565b82525050565b60006126cb82613085565b6126d5818561309b565b93506126e5818560208601613260565b6126ee8161342c565b840191505092915050565b600061270482613090565b61270e81856130ac565b935061271e818560208601613260565b6127278161342c565b840191505092915050565b600061273d82613090565b61274781856130bd565b9350612757818560208601613260565b80840191505092915050565b6000815461277081613293565b61277a81866130bd565b9450600182166000811461279557600181146127a6576127d9565b60ff198316865281860193506127d9565b6127af85613070565b60005b838110156127d1578154818901526001820191506020810190506127b2565b838801955050505b50505092915050565b60006127ef6025836130bd565b91506127fa8261343d565b602582019050919050565b60006128126032836130ac565b915061281d8261348c565b604082019050919050565b60006128356025836130ac565b9150612840826134db565b604082019050919050565b6000612858601c836130ac565b91506128638261352a565b602082019050919050565b600061287b600a836130bd565b915061288682613553565b600a82019050919050565b600061289e6024836130ac565b91506128a98261357c565b604082019050919050565b60006128c16019836130ac565b91506128cc826135cb565b602082019050919050565b60006128e4600b836130bd565b91506128ef826135f4565b600b82019050919050565b6000612907602c836130ac565b91506129128261361d565b604082019050919050565b600061292a600d836130bd565b91506129358261366c565b600d82019050919050565b600061294d6038836130ac565b915061295882613695565b604082019050919050565b6000612970602a836130ac565b915061297b826136e4565b604082019050919050565b60006129936029836130ac565b915061299e82613733565b604082019050919050565b60006129b6602e836130ac565b91506129c182613782565b604082019050919050565b60006129d96002836130bd565b91506129e4826137d1565b600282019050919050565b60006129fc6020836130ac565b9150612a07826137fa565b602082019050919050565b6000612a1f6031836130ac565b9150612a2a82613823565b604082019050919050565b6000612a42602c836130ac565b9150612a4d82613872565b604082019050919050565b6000612a65602f836130ac565b9150612a70826138c1565b604082019050919050565b6000612a88600a836130bd565b9150612a9382613910565b600a82019050919050565b6000612aab6021836130ac565b9150612ab682613939565b604082019050919050565b6000612ace600a836130bd565b9150612ad982613988565b600a82019050919050565b6000612af1601d836130bd565b9150612afc826139b1565b601d82019050919050565b6000612b146031836130ac565b9150612b1f826139da565b604082019050919050565b6000612b37604f836130bd565b9150612b4282613a29565b604f82019050919050565b612b5681613247565b82525050565b6000612b688284612732565b915081905092915050565b6000612b7f8285612732565b9150612b8b8284612732565b91508190509392505050565b6000612ba38286612732565b9150612baf8285612732565b9150612bbb8284612732565b9150819050949350505050565b6000612bd48285612763565b9150612be08284612732565b9150612beb8261291d565b91508190509392505050565b6000612c02826127e2565b9150612c0e8284612732565b915081905092915050565b6000612c248261286e565b9150612c308284612732565b915081905092915050565b6000612c46826128d7565b9150612c528284612732565b915081905092915050565b6000612c6882612a7b565b9150612c748285612732565b9150612c7f82612b2a565b9150612c8b8284612732565b9150612c96826129cc565b91508190509392505050565b6000612cad82612ac1565b9150612cb98284612732565b915081905092915050565b6000612ccf82612ae4565b9150612cdb8284612732565b915081905092915050565b6000602082019050612cfb60008301846126a2565b92915050565b6000608082019050612d1660008301876126a2565b612d2360208301866126a2565b612d306040830185612b4d565b8181036060830152612d4281846126c0565b905095945050505050565b6000602082019050612d6260008301846126b1565b92915050565b60006020820190508181036000830152612d8281846126f9565b905092915050565b60006040820190508181036000830152612da481856126f9565b90508181036020830152612db881846126f9565b90509392505050565b60006060820190508181036000830152612ddb81866126f9565b9050612dea6020830185612b4d565b612df760408301846126a2565b949350505050565b60006020820190508181036000830152612e1881612805565b9050919050565b60006020820190508181036000830152612e3881612828565b9050919050565b60006020820190508181036000830152612e588161284b565b9050919050565b60006020820190508181036000830152612e7881612891565b9050919050565b60006020820190508181036000830152612e98816128b4565b9050919050565b60006020820190508181036000830152612eb8816128fa565b9050919050565b60006020820190508181036000830152612ed881612940565b9050919050565b60006020820190508181036000830152612ef881612963565b9050919050565b60006020820190508181036000830152612f1881612986565b9050919050565b60006020820190508181036000830152612f38816129a9565b9050919050565b60006020820190508181036000830152612f58816129ef565b9050919050565b60006020820190508181036000830152612f7881612a12565b9050919050565b60006020820190508181036000830152612f9881612a35565b9050919050565b60006020820190508181036000830152612fb881612a58565b9050919050565b60006020820190508181036000830152612fd881612a9e565b9050919050565b60006020820190508181036000830152612ff881612b07565b9050919050565b60006020820190506130146000830184612b4d565b92915050565b6000613024613035565b905061303082826132c5565b919050565b6000604051905090565b600067ffffffffffffffff82111561305a576130596133fd565b5b6130638261342c565b9050602081019050919050565b60008190508160005260206000209050919050565b600081519050919050565b600081519050919050565b600082825260208201905092915050565b600082825260208201905092915050565b600081905092915050565b60006130d382613247565b91506130de83613247565b9250827fffffffffffffffffffffffffffffffffffffffffffffffffffffffffffffffff0382111561311357613112613370565b5b828201905092915050565b600061312982613247565b915061313483613247565b9250826131445761314361339f565b5b828204905092915050565b600061315a82613247565b915061316583613247565b9250817fffffffffffffffffffffffffffffffffffffffffffffffffffffffffffffffff048311821515161561319e5761319d613370565b5b828202905092915050565b60006131b482613247565b91506131bf83613247565b9250828210156131d2576131d1613370565b5b828203905092915050565b60006131e882613227565b9050919050565b60008115159050919050565b60007fffffffff0000000000000000000000000000000000000000000000000000000082169050919050565b600073ffffffffffffffffffffffffffffffffffffffff82169050919050565b6000819050919050565b82818337600083830152505050565b60005b8381101561327e578082015181840152602081019050613263565b8381111561328d576000848401525b50505050565b600060028204905060018216806132ab57607f821691505b602082108114156132bf576132be6133ce565b5b50919050565b6132ce8261342c565b810181811067ffffffffffffffff821117156132ed576132ec6133fd565b5b80604052505050565b600061330182613247565b91507fffffffffffffffffffffffffffffffffffffffffffffffffffffffffffffffff82141561333457613333613370565b5b600182019050919050565b600061334a82613247565b915061335583613247565b9250826133655761336461339f565b5b828206905092915050565b7f4e487b7100000000000000000000000000000000000000000000000000000000600052601160045260246000fd5b7f4e487b7100000000000000000000000000000000000000000000000000000000600052601260045260246000fd5b7f4e487b7100000000000000000000000000000000000000000000000000000000600052602260045260246000fd5b7f4e487b7100000000000000000000000000000000000000000000000000000000600052604160045260246000fd5b6000601f19601f8301169050919050565b7f68747470733a2f2f6e6674707265766965772e30786465762e636f6465732f3f60008201527f636f64653d000000000000000000000000000000000000000000000000000000602082015250565b7f4552433732313a207472616e7366657220746f206e6f6e20455243373231526560008201527f63656976657220696d706c656d656e7465720000000000000000000000000000602082015250565b7f4552433732313a207472616e736665722066726f6d20696e636f72726563742060008201527f6f776e6572000000000000000000000000000000000000000000000000000000602082015250565b7f4552433732313a20746f6b656e20616c7265616479206d696e74656400000000600082015250565b7f54484952445f574f524400000000000000000000000000000000000000000000600082015250565b7f4552433732313a207472616e7366657220746f20746865207a65726f2061646460008201527f7265737300000000000000000000000000000000000000000000000000000000602082015250565b7f4552433732313a20617070726f766520746f2063616c6c657200000000000000600082015250565b7f5345434f4e445f574f5244000000000000000000000000000000000000000000600082015250565b7f4552433732313a206f70657261746f7220717565727920666f72206e6f6e657860008201527f697374656e7420746f6b656e0000000000000000000000000000000000000000602082015250565b7f3c2f746578743e3c2f7376673e00000000000000000000000000000000000000600082015250565b7f4552433732313a20617070726f76652063616c6c6572206973206e6f74206f7760008201527f6e6572206e6f7220617070726f76656420666f7220616c6c0000000000000000602082015250565b7f4552433732313a2062616c616e636520717565727920666f7220746865207a6560008201527f726f206164647265737300000000000000000000000000000000000000000000602082015250565b7f4552433732313a206f776e657220717565727920666f72206e6f6e657869737460008201527f656e7420746f6b656e0000000000000000000000000000000000000000000000602082015250565b7f45524337323155524953746f726167653a2055524920736574206f66206e6f6e60008201527f6578697374656e7420746f6b656e000000000000000000000000000000000000602082015250565b7f227d000000000000000000000000000000000000000000000000000000000000600082015250565b7f4552433732313a206d696e7420746f20746865207a65726f2061646472657373600082015250565b7f45524337323155524953746f726167653a2055524920717565727920666f722060008201527f6e6f6e6578697374656e7420746f6b656e000000000000000000000000000000602082015250565b7f4552433732313a20617070726f76656420717565727920666f72206e6f6e657860008201527f697374656e7420746f6b656e0000000000000000000000000000000000000000602082015250565b7f4552433732314d657461646174613a2055524920717565727920666f72206e6f60008201527f6e6578697374656e7420746f6b656e0000000000000000000000000000000000602082015250565b7f7b226e616d65223a202200000000000000000000000000000000000000000000600082015250565b7f4552433732313a20617070726f76616c20746f2063757272656e74206f776e6560008201527f7200000000000000000000000000000000000000000000000000000000000000602082015250565b7f46495253545f574f524400000000000000000000000000000000000000000000600082015250565b7f646174613a6170706c69636174696f6e2f6a736f6e3b6261736536342c000000600082015250565b7f4552433732313a207472616e736665722063616c6c6572206973206e6f74206f60008201527f776e6572206e6f7220617070726f766564000000000000000000000000000000602082015250565b7f222c20226465736372697074696f6e223a2022497427732068697020746f206260008201527f6520737175617265222c2022696d616765223a2022646174613a696d6167652f60208201527f7376672b786d6c3b6261736536342c0000000000000000000000000000000000604082015250565b613aa7816131dd565b8114613ab257600080fd5b50565b613abe816131ef565b8114613ac957600080fd5b50565b613ad5816131fb565b8114613ae057600080fd5b50565b613aec81613247565b8114613af757600080fd5b5056fe416e204e465420772f20494420257320686173206265656e206d696e74656420746f2025734142434445464748494a4b4c4d4e4f505152535455565758595a6162636465666768696a6b6c6d6e6f707172737475767778797a303132333435363738392b2fa2646970667358221220e3ae176f0eeddc6be5e2bb18886eb85eac90e93079e8efb9868d5a24556deeb764736f6c634300080100333c73766720786d6c6e733d27687474703a2f2f7777772e77332e6f72672f323030302f73766727207072657365727665417370656374526174696f3d27784d696e594d696e206d656574272076696577426f783d273020302033353020333530273e3c7374796c653e2e62617365207b2066696c6c3a2077686974653b20666f6e742d66616d696c793a2073657269663b20666f6e742d73697a653a20313470783b207d3c2f7374796c653e3c726563742077696474683d273130302527206865696768743d2731303025272066696c6c3d27626c61636b27202f3e3c7465787420783d273530252720793d273530252720636c6173733d27626173652720646f6d696e616e742d626173656c696e653d276d6964646c652720746578742d616e63686f723d276d6964646c65273e",
    "linkReferences": {},
    "deployedLinkReferences": {}
}